:020000040800F2
:10000000280400209D010008C5020008C102000864
:10001000C3020008E501000807070008000000000F
:10002000000000000000000000000000F1030008D4
:10003000E7010008000000002D030008A9040008E3
:10004000B7010008B7010008B7010008B7010008B0
:10005000B7010008B7010008B7010008B7010008A0
:10006000B7010008B7010008B7010008B701000890
:10007000B7010008B7010008B7010008B701000880
:10008000B7010008B7010008B7010008B701000870
:10009000B7010008B7010008B7010008B701000860
:1000A000B7010008B7010008B7010008B701000850
:1000B000B7010008B7010008B7010008B701000840
:1000C000B7010008B7010008B7010008B701000830
:1000D000B7010008FD040008B7010008B7010008D7
:1000E000B7010008B7010008B7010008B701000810
:1000F000B7010008B7010008B7010008B701000800
:10010000B7010008B7010008B7010008B7010008EF
:10011000B7010008B7010008B7010008B7010008DF
:10012000B7010008B7010008B7010008B7010008CF
:10013000B7010008B7010008B7010008B7010008BF
:10014000B7010008B7010008B7010008B7010008AF
:10015000B7010008B7010008B7010008B70100089F
:10016000B7010008B7010008B7010008B70100088F
:10017000B7010008B7010008B7010008B70100087F
:10018000B7010008B7010008DFF80CD000F018F83C
:10019000004800472108000828040020064880473E
:1001A00006480047FEE7FEE7FEE7FEE7FEE7FEE75C
:1001B000FEE7FEE7FEE7FEE7AD0400088901000860
:1001C000064C074D06E0E06840F0010394E80700A4
:1001D00098471034AC42F6D3FFF7DAFF78080008EE
:1001E00098080008FEE77047F0B5002301240327B4
:1001F0000D6804FA03F21540954242D1D0F800C0D0
:100200005E0007FA06F52CEA050CC0F800C091F86C
:1002100004C0D0F800E00CFA06FC4CEA0E0CC0F862
:1002200000C091F804C0BCF1010F02D0BCF1020F74
:100230001FD1D0F808C02CEA050CC0F808C091F80E
:1002400005C0D0F808E00CFA06FC4CEA0E0CC0F829
:1002500008C0D0F804C02CEA020CC0F804C0426800
:1002600091F806C00CFA03FC1FFA8CFC42EA0C025F
:100270004260C268AA43C260CA79C568B2402A43D4
:10028000C2605B1C102BB3D3F0BD4B07DB0E9A4052
:10029000C90810B500EB8100016A0F249C40A143FE
:1002A0000162016A1143016210BD02460020126919
:1002B0000A4200D001207047418370470183704794
:1002C000FEE7FEE77047000070B50F21C4780278A2
:1002D00001234FF0E026E4B1124C246804F4E064FA
:1002E000C4F5E064C4F30724C4F10405E140447894
:1002F000AC4085780D4025430B4C29011155007801
:1003000000F01F018B40400906EB8000C0F800316F
:1003100070BD02F01F008340500906EB8000C0F85A
:10032000803170BD0CED00E000E400E0704700009B
:10033000044A0029116801D0014300E081431160A3
:100340007047000030380240044A0029116801D08B
:10035000014300E0814311607047000044380240CF
:1003600070B5204A1168204C11F00C0104D06610C1
:10037000042903D0082903D004601BE0066019E0BB
:100380001849091F0B68C3F380550B6803F03F033E
:1003900015B1B6FBF3F301E0B4FBF3F30C680968A5
:1003A000C4F388146343C1F30141491C4900B3FB02
:1003B000F1F1016011680F2303EA11110B4B5C5C32
:1003C0000168E14041601468072505EA94241C5D3A
:1003D00021FA04F48460126805EA52329A5CD14032
:1003E000C16070BD083802400024F4000100002004
:1003F000704700000CB500202749019000900A6862
:1004000042F480320A604FF4A0630A6802F40032BA
:100410000092019A521C0192009A12B9019A9A42D2
:10042000F3D10A68920334D5012000901A48403075
:10043000026842F0805202601848026842F480422A
:1004400002601548083002680260026842F4004207
:100450000260026842F4A0520260031F104A1A6050
:100460000A6842F080720A600A689201FCD50D4A5F
:1004700040F205611160016821F00301016001682B
:1004800041F0020101600168C1F381010229FAD142
:100490000CBD00900CBD0000003802400070004010
:1004A00008544007003C0240704700000F4810B558
:1004B000016841F0010101600C4A0021083211601D
:1004C00002680B4B1A400260031D0A4A1A60026858
:1004D00022F48022026005480C300160FFF78AFF99
:1004E00005494FF00060086010BD00000038024070
:1004F000FFFFF6FE1030002408ED00E02DE9F04784
:10050000234C40F22551204600F054F800280DD02D
:10051000A1882046CAB200241E4E1F4D0A2A07D0C9
:1005200031780C2904D26A54491C3170BDE8F08737
:10053000194900F0D7F83078284410F8010C174F0B
:1005400041284FF400514FF480484FF40049384699
:100550000CD0FFF7B1FE41463846FFF7ADFE4946E5
:100560003846FFF7A9FE317800200CE0FFF7A6FE21
:1005700041463846FFF7A2FE49463846FFF79EFE41
:10058000F1E72855641C8C42FBDB3070CEE700009D
:10059000001001400000002014000020000C024068
:1005A0000029818902D041F4005101E021F4005179
:1005B0008181704730B501F01F0201240025C1F38D
:1005C000421304FA02F2012B0FD0022B0FD0838AC0
:1005D0004FEA11210088134204FA01F400EA0400F2
:1005E00001D000B10125284630BD8389F0E7038A98
:1005F000EEE710B5C1F3421301F01F040121A14041
:10060000012B07D0022B07D01430002A026805D036
:100610000A4304E00C30F8E71030F6E78A43026042
:1006200010BD00007FB50446008A0D4620F44051FD
:10063000E88808432082A08941F20C618843A98898
:100640002A8911436A8902431143A181A08A20F4B7
:100650004071A8890843A0826846FFF781FE1D48C3
:10066000844202D01C48844201D1039800E00298E1
:10067000A1890904002900EBC00101EB00102968E1
:1006800002DA4FEA410101E04FEA8101B0FBF1F2E9
:100690006420B2FBF0F14FEA01114FEA11136FF041
:1006A00018056B4302EB8302A3891D044FF032034C
:1006B00006D503EBC202B2FBF0F000F0070005E044
:1006C00003EB0212B2FBF0F000F00F0008432081B0
:1006D0007FBD00000010014000140140C1F308017B
:1006E0008180704770B50C46054608E028884006B2
:1006F000FCD521782846FFF7F1FF14F8010B20788C
:100700000028F3D170BDFEE702E008C8121F08C13F
:10071000002AFAD170477047002001E001C1121F82
:10072000002AFBD1704700002DE9F041804688B0D7
:1007300001211020FFF708FE01210820FFF7F8FD36
:1007400001210220FFF7F4FD01210846FFF7F0FD2B
:10075000C020009002208DF804008DF805000024D0
:100760002B4F8DF8064001258DF807506946384615
:10077000FFF73AFD8DF804504FF470408DF80640B5
:10078000032600908DF805608DF8074069462148E2
:10079000FFF72AFD8DF8044000958DF80560694645
:1007A0001D48FFF721FD072206213846FFF76DFDA2
:1007B000072211463846FFF768FDADF810400C20BF
:1007C000164EADF80C40ADF81200CDF80880ADF82B
:1007D0000E40ADF8144002A93046FFF723FF012276
:1007E00040F225513046FFF704FF25208DF8180010
:1007F0008DF819408DF81A408DF81B5006A8FFF7A8
:1008000063FD01213046FFF7CBFE08B0BDE8F08163
:1008100000040240000C02400000024000100140B1
:100820004FF41650FFF780FF0AA11048FFF75AFF58
:100830000F4C104EA51401212046FFF736FD00286D
:100840002946304602D0FFF739FDF4E7FFF734FDC3
:10085000F1E70000496E697420636F6D706C657418
:1008600065212048656C6C6F00000000001001409D
:1008700000000240000C0240980800080000002020
:100880001400000008070008AC080008140000204D
:100890001404000018070008000000000001020313
:0C08A00004010203040607080900000020
:040000050800018965
:00000001FF
